{
  "_format": "hh-sol-artifact-1",
  "contractName": "MetaHorseNFT",
  "sourceName": "contracts/NFT.sol",
  "abi": [
    {
      "inputs": [],
      "stateMutability": "nonpayable",
      "type": "constructor"
    },
    {
      "inputs": [
        {
          "internalType": "address",
          "name": "sender",
          "type": "address"
        },
        {
          "internalType": "uint256",
          "name": "tokenId",
          "type": "uint256"
        },
        {
          "internalType": "address",
          "name": "owner",
          "type": "address"
        }
      ],
      "name": "ERC721IncorrectOwner",
      "type": "error"
    },
    {
      "inputs": [
        {
          "internalType": "address",
          "name": "operator",
          "type": "address"
        },
        {
          "internalType": "uint256",
          "name": "tokenId",
          "type": "uint256"
        }
      ],
      "name": "ERC721InsufficientApproval",
      "type": "error"
    },
    {
      "inputs": [
        {
          "internalType": "address",
          "name": "approver",
          "type": "address"
        }
      ],
      "name": "ERC721InvalidApprover",
      "type": "error"
    },
    {
      "inputs": [
        {
          "internalType": "address",
          "name": "operator",
          "type": "address"
        }
      ],
      "name": "ERC721InvalidOperator",
      "type": "error"
    },
    {
      "inputs": [
        {
          "internalType": "address",
          "name": "owner",
          "type": "address"
        }
      ],
      "name": "ERC721InvalidOwner",
      "type": "error"
    },
    {
      "inputs": [
        {
          "internalType": "address",
          "name": "receiver",
          "type": "address"
        }
      ],
      "name": "ERC721InvalidReceiver",
      "type": "error"
    },
    {
      "inputs": [
        {
          "internalType": "address",
          "name": "sender",
          "type": "address"
        }
      ],
      "name": "ERC721InvalidSender",
      "type": "error"
    },
    {
      "inputs": [
        {
          "internalType": "uint256",
          "name": "tokenId",
          "type": "uint256"
        }
      ],
      "name": "ERC721NonexistentToken",
      "type": "error"
    },
    {
      "inputs": [
        {
          "internalType": "string",
          "name": "title",
          "type": "string"
        }
      ],
      "name": "TitleAlreadyUsed",
      "type": "error"
    },
    {
      "inputs": [],
      "name": "tokenIdPositive",
      "type": "error"
    },
    {
      "anonymous": false,
      "inputs": [
        {
          "indexed": true,
          "internalType": "address",
          "name": "owner",
          "type": "address"
        },
        {
          "indexed": true,
          "internalType": "address",
          "name": "approved",
          "type": "address"
        },
        {
          "indexed": true,
          "internalType": "uint256",
          "name": "tokenId",
          "type": "uint256"
        }
      ],
      "name": "Approval",
      "type": "event"
    },
    {
      "anonymous": false,
      "inputs": [
        {
          "indexed": true,
          "internalType": "address",
          "name": "owner",
          "type": "address"
        },
        {
          "indexed": true,
          "internalType": "address",
          "name": "operator",
          "type": "address"
        },
        {
          "indexed": false,
          "internalType": "bool",
          "name": "approved",
          "type": "bool"
        }
      ],
      "name": "ApprovalForAll",
      "type": "event"
    },
    {
      "anonymous": false,
      "inputs": [
        {
          "indexed": false,
          "internalType": "uint256",
          "name": "_fromTokenId",
          "type": "uint256"
        },
        {
          "indexed": false,
          "internalType": "uint256",
          "name": "_toTokenId",
          "type": "uint256"
        }
      ],
      "name": "BatchMetadataUpdate",
      "type": "event"
    },
    {
      "anonymous": false,
      "inputs": [
        {
          "indexed": false,
          "internalType": "uint256",
          "name": "_tokenId",
          "type": "uint256"
        }
      ],
      "name": "MetadataUpdate",
      "type": "event"
    },
    {
      "anonymous": false,
      "inputs": [
        {
          "indexed": true,
          "internalType": "address",
          "name": "from",
          "type": "address"
        },
        {
          "indexed": true,
          "internalType": "address",
          "name": "to",
          "type": "address"
        },
        {
          "indexed": true,
          "internalType": "uint256",
          "name": "tokenId",
          "type": "uint256"
        }
      ],
      "name": "Transfer",
      "type": "event"
    },
    {
      "inputs": [
        {
          "internalType": "address",
          "name": "to",
          "type": "address"
        },
        {
          "internalType": "uint256",
          "name": "tokenId",
          "type": "uint256"
        }
      ],
      "name": "approve",
      "outputs": [],
      "stateMutability": "nonpayable",
      "type": "function"
    },
    {
      "inputs": [
        {
          "internalType": "address",
          "name": "owner",
          "type": "address"
        }
      ],
      "name": "balanceOf",
      "outputs": [
        {
          "internalType": "uint256",
          "name": "",
          "type": "uint256"
        }
      ],
      "stateMutability": "view",
      "type": "function"
    },
    {
      "inputs": [
        {
          "internalType": "uint256",
          "name": "tokenId",
          "type": "uint256"
        }
      ],
      "name": "burn",
      "outputs": [],
      "stateMutability": "nonpayable",
      "type": "function"
    },
    {
      "inputs": [
        {
          "internalType": "uint256",
          "name": "tokenId",
          "type": "uint256"
        }
      ],
      "name": "getApproved",
      "outputs": [
        {
          "internalType": "address",
          "name": "",
          "type": "address"
        }
      ],
      "stateMutability": "view",
      "type": "function"
    },
    {
      "inputs": [
        {
          "internalType": "address",
          "name": "owner",
          "type": "address"
        }
      ],
      "name": "getBalances",
      "outputs": [
        {
          "internalType": "uint256",
          "name": "",
          "type": "uint256"
        }
      ],
      "stateMutability": "view",
      "type": "function"
    },
    {
      "inputs": [],
      "name": "getName",
      "outputs": [
        {
          "internalType": "string",
          "name": "",
          "type": "string"
        }
      ],
      "stateMutability": "view",
      "type": "function"
    },
    {
      "inputs": [
        {
          "internalType": "uint256",
          "name": "tokenId",
          "type": "uint256"
        }
      ],
      "name": "getOwnerOf",
      "outputs": [
        {
          "internalType": "address",
          "name": "",
          "type": "address"
        }
      ],
      "stateMutability": "view",
      "type": "function"
    },
    {
      "inputs": [],
      "name": "getSymbol",
      "outputs": [
        {
          "internalType": "string",
          "name": "",
          "type": "string"
        }
      ],
      "stateMutability": "view",
      "type": "function"
    },
    {
      "inputs": [
        {
          "internalType": "address",
          "name": "owner",
          "type": "address"
        },
        {
          "internalType": "address",
          "name": "operator",
          "type": "address"
        }
      ],
      "name": "isApprovedForAll",
      "outputs": [
        {
          "internalType": "bool",
          "name": "",
          "type": "bool"
        }
      ],
      "stateMutability": "view",
      "type": "function"
    },
    {
      "inputs": [],
      "name": "name",
      "outputs": [
        {
          "internalType": "string",
          "name": "",
          "type": "string"
        }
      ],
      "stateMutability": "view",
      "type": "function"
    },
    {
      "inputs": [
        {
          "internalType": "uint256",
          "name": "tokenId",
          "type": "uint256"
        }
      ],
      "name": "ownerOf",
      "outputs": [
        {
          "internalType": "address",
          "name": "",
          "type": "address"
        }
      ],
      "stateMutability": "view",
      "type": "function"
    },
    {
      "inputs": [
        {
          "internalType": "address",
          "name": "to",
          "type": "address"
        },
        {
          "internalType": "uint256",
          "name": "tokenId",
          "type": "uint256"
        },
        {
          "internalType": "string",
          "name": "uri",
          "type": "string"
        },
        {
          "internalType": "string",
          "name": "title",
          "type": "string"
        }
      ],
      "name": "safeMint",
      "outputs": [],
      "stateMutability": "nonpayable",
      "type": "function"
    },
    {
      "inputs": [
        {
          "internalType": "address",
          "name": "from",
          "type": "address"
        },
        {
          "internalType": "address",
          "name": "to",
          "type": "address"
        },
        {
          "internalType": "uint256",
          "name": "tokenId",
          "type": "uint256"
        }
      ],
      "name": "safeTransferFrom",
      "outputs": [],
      "stateMutability": "nonpayable",
      "type": "function"
    },
    {
      "inputs": [
        {
          "internalType": "address",
          "name": "from",
          "type": "address"
        },
        {
          "internalType": "address",
          "name": "to",
          "type": "address"
        },
        {
          "internalType": "uint256",
          "name": "tokenId",
          "type": "uint256"
        },
        {
          "internalType": "bytes",
          "name": "data",
          "type": "bytes"
        }
      ],
      "name": "safeTransferFrom",
      "outputs": [],
      "stateMutability": "nonpayable",
      "type": "function"
    },
    {
      "inputs": [
        {
          "internalType": "address",
          "name": "operator",
          "type": "address"
        },
        {
          "internalType": "bool",
          "name": "approved",
          "type": "bool"
        }
      ],
      "name": "setApprovalForAll",
      "outputs": [],
      "stateMutability": "nonpayable",
      "type": "function"
    },
    {
      "inputs": [
        {
          "internalType": "bytes4",
          "name": "interfaceId",
          "type": "bytes4"
        }
      ],
      "name": "supportsInterface",
      "outputs": [
        {
          "internalType": "bool",
          "name": "",
          "type": "bool"
        }
      ],
      "stateMutability": "view",
      "type": "function"
    },
    {
      "inputs": [],
      "name": "symbol",
      "outputs": [
        {
          "internalType": "string",
          "name": "",
          "type": "string"
        }
      ],
      "stateMutability": "view",
      "type": "function"
    },
    {
      "inputs": [
        {
          "internalType": "string",
          "name": "titles",
          "type": "string"
        }
      ],
      "name": "titles",
      "outputs": [
        {
          "internalType": "uint256",
          "name": "",
          "type": "uint256"
        }
      ],
      "stateMutability": "view",
      "type": "function"
    },
    {
      "inputs": [
        {
          "internalType": "uint256",
          "name": "tokenId",
          "type": "uint256"
        }
      ],
      "name": "tokenURI",
      "outputs": [
        {
          "internalType": "string",
          "name": "",
          "type": "string"
        }
      ],
      "stateMutability": "view",
      "type": "function"
    },
    {
      "inputs": [
        {
          "internalType": "address",
          "name": "from",
          "type": "address"
        },
        {
          "internalType": "address",
          "name": "to",
          "type": "address"
        },
        {
          "internalType": "uint256",
          "name": "tokenId",
          "type": "uint256"
        }
      ],
      "name": "transferFrom",
      "outputs": [],
      "stateMutability": "nonpayable",
      "type": "function"
    }
  ],
  "bytecode": "0x608060405234801561001057600080fd5b506040518060400160405280600981526020017f4d657461486f72736500000000000000000000000000000000000000000000008152506040518060400160405280600481526020017f4d45544800000000000000000000000000000000000000000000000000000000815250816000908161008c91906102f4565b50806001908161009c91906102f4565b5050506103c6565b600081519050919050565b7f4e487b7100000000000000000000000000000000000000000000000000000000600052604160045260246000fd5b7f4e487b7100000000000000000000000000000000000000000000000000000000600052602260045260246000fd5b6000600282049050600182168061012557607f821691505b602082108103610138576101376100de565b5b50919050565b60008190508160005260206000209050919050565b60006020601f8301049050919050565b600082821b905092915050565b6000600883026101a07fffffffffffffffffffffffffffffffffffffffffffffffffffffffffffffffff82610163565b6101aa8683610163565b95508019841693508086168417925050509392505050565b6000819050919050565b6000819050919050565b60006101f16101ec6101e7846101c2565b6101cc565b6101c2565b9050919050565b6000819050919050565b61020b836101d6565b61021f610217826101f8565b848454610170565b825550505050565b600090565b610234610227565b61023f818484610202565b505050565b5b818110156102635761025860008261022c565b600181019050610245565b5050565b601f8211156102a8576102798161013e565b61028284610153565b81016020851015610291578190505b6102a561029d85610153565b830182610244565b50505b505050565b600082821c905092915050565b60006102cb600019846008026102ad565b1980831691505092915050565b60006102e483836102ba565b9150826002028217905092915050565b6102fd826100a4565b67ffffffffffffffff811115610316576103156100af565b5b610320825461010d565b61032b828285610267565b600060209050601f83116001811461035e576000841561034c578287015190505b61035685826102d8565b8655506103be565b601f19841661036c8661013e565b60005b828110156103945784890151825560018201915060208501945060208101905061036f565b868310156103b157848901516103ad601f8916826102ba565b8355505b6001600288020188555050505b505050505050565b612683806103d56000396000f3fe608060405234801561001057600080fd5b506004361061012c5760003560e01c80636352211e116100ad578063a22cb46511610071578063a22cb46514610355578063b88d4fde14610371578063c84aae171461038d578063c87b56dd146103bd578063e985e9c5146103ed5761012c565b80636352211e1461027757806370a08231146102a757806383638710146102d757806395d89b4114610307578063a1f71b0b146103255761012c565b806317d7de7c116100f457806317d7de7c146101e957806323b872dd1461020757806337f685521461022357806342842e0e1461023f57806342966c681461025b5761012c565b806301ffc9a71461013157806306fdde0314610161578063081812fc1461017f578063095ea7b3146101af57806315070401146101cb575b600080fd5b61014b60048036038101906101469190611aaf565b61041d565b6040516101589190611af7565b60405180910390f35b61016961042f565b6040516101769190611ba2565b60405180910390f35b61019960048036038101906101949190611bfa565b6104c1565b6040516101a69190611c68565b60405180910390f35b6101c960048036038101906101c49190611caf565b6104dd565b005b6101d36104f3565b6040516101e09190611ba2565b60405180910390f35b6101f1610502565b6040516101fe9190611ba2565b60405180910390f35b610221600480360381019061021c9190611cef565b610511565b005b61023d60048036038101906102389190611e77565b610613565b005b61025960048036038101906102549190611cef565b6106ed565b005b61027560048036038101906102709190611bfa565b61070d565b005b610291600480360381019061028c9190611bfa565b610724565b60405161029e9190611c68565b60405180910390f35b6102c160048036038101906102bc9190611f16565b610736565b6040516102ce9190611f52565b60405180910390f35b6102f160048036038101906102ec9190611bfa565b6107f0565b6040516102fe9190611c68565b60405180910390f35b61030f610802565b60405161031c9190611ba2565b60405180910390f35b61033f600480360381019061033a9190611f6d565b610894565b60405161034c9190611f52565b60405180910390f35b61036f600480360381019061036a9190611fe2565b6108c2565b005b61038b600480360381019061038691906120c3565b6108d8565b005b6103a760048036038101906103a29190611f16565b6108f5565b6040516103b49190611f52565b60405180910390f35b6103d760048036038101906103d29190611bfa565b610907565b6040516103e49190611ba2565b60405180910390f35b61040760048036038101906104029190612146565b610919565b6040516104149190611af7565b60405180910390f35b6000610428826109ad565b9050919050565b60606000805461043e906121b5565b80601f016020809104026020016040519081016040528092919081815260200182805461046a906121b5565b80156104b75780601f1061048c576101008083540402835291602001916104b7565b820191906000526020600020905b81548152906001019060200180831161049a57829003601f168201915b5050505050905090565b60006104cc82610a0e565b506104d682610a96565b9050919050565b6104ef82826104ea610ad3565b610adb565b5050565b60606104fd610802565b905090565b606061050c61042f565b905090565b600073ffffffffffffffffffffffffffffffffffffffff168273ffffffffffffffffffffffffffffffffffffffff16036105835760006040517f64a0ae9200000000000000000000000000000000000000000000000000000000815260040161057a9190611c68565b60405180910390fd5b60006105978383610592610ad3565b610aed565b90508373ffffffffffffffffffffffffffffffffffffffff168173ffffffffffffffffffffffffffffffffffffffff161461060d578382826040517f64283d7b000000000000000000000000000000000000000000000000000000008152600401610604939291906121e6565b60405180910390fd5b50505050565b61061d8484610d07565b6106278383610d25565b60008303610661576040517f0ba7548b00000000000000000000000000000000000000000000000000000000815260040160405180910390fd5b60006007826040516106739190612259565b908152602001604051809103902054146106c457806040517f3c41b6ec0000000000000000000000000000000000000000000000000000000081526004016106bb9190611ba2565b60405180910390fd5b826007826040516106d59190612259565b90815260200160405180910390208190555050505050565b610708838383604051806020016040528060008152506108d8565b505050565b61072060008261071b610ad3565b610aed565b5050565b600061072f82610a0e565b9050919050565b60008073ffffffffffffffffffffffffffffffffffffffff168273ffffffffffffffffffffffffffffffffffffffff16036107a95760006040517f89c62b640000000000000000000000000000000000000000000000000000000081526004016107a09190611c68565b60405180910390fd5b600360008373ffffffffffffffffffffffffffffffffffffffff1673ffffffffffffffffffffffffffffffffffffffff168152602001908152602001600020549050919050565b60006107fb82610d81565b9050919050565b606060018054610811906121b5565b80601f016020809104026020016040519081016040528092919081815260200182805461083d906121b5565b801561088a5780601f1061085f5761010080835404028352916020019161088a565b820191906000526020600020905b81548152906001019060200180831161086d57829003601f168201915b5050505050905090565b6007818051602081018201805184825260208301602085012081835280955050505050506000915090505481565b6108d46108cd610ad3565b8383610dbe565b5050565b6108e3848484610511565b6108ef84848484610f2d565b50505050565b600061090082610736565b9050919050565b6060610912826110e4565b9050919050565b6000600560008473ffffffffffffffffffffffffffffffffffffffff1673ffffffffffffffffffffffffffffffffffffffff16815260200190815260200160002060008373ffffffffffffffffffffffffffffffffffffffff1673ffffffffffffffffffffffffffffffffffffffff16815260200190815260200160002060009054906101000a900460ff16905092915050565b6000634906490660e01b7bffffffffffffffffffffffffffffffffffffffffffffffffffffffff1916827bffffffffffffffffffffffffffffffffffffffffffffffffffffffff19161480610a075750610a06826111f7565b5b9050919050565b600080610a1a83610d81565b9050600073ffffffffffffffffffffffffffffffffffffffff168173ffffffffffffffffffffffffffffffffffffffff1603610a8d57826040517f7e273289000000000000000000000000000000000000000000000000000000008152600401610a849190611f52565b60405180910390fd5b80915050919050565b60006004600083815260200190815260200160002060009054906101000a900473ffffffffffffffffffffffffffffffffffffffff169050919050565b600033905090565b610ae883838360016112d9565b505050565b600080610af984610d81565b9050600073ffffffffffffffffffffffffffffffffffffffff168373ffffffffffffffffffffffffffffffffffffffff1614610b3b57610b3a81848661149e565b5b600073ffffffffffffffffffffffffffffffffffffffff168173ffffffffffffffffffffffffffffffffffffffff1614610bcc57610b7d6000856000806112d9565b6001600360008373ffffffffffffffffffffffffffffffffffffffff1673ffffffffffffffffffffffffffffffffffffffff168152602001908152602001600020600082825403925050819055505b600073ffffffffffffffffffffffffffffffffffffffff168573ffffffffffffffffffffffffffffffffffffffff1614610c4f576001600360008773ffffffffffffffffffffffffffffffffffffffff1673ffffffffffffffffffffffffffffffffffffffff168152602001908152602001600020600082825401925050819055505b846002600086815260200190815260200160002060006101000a81548173ffffffffffffffffffffffffffffffffffffffff021916908373ffffffffffffffffffffffffffffffffffffffff160217905550838573ffffffffffffffffffffffffffffffffffffffff168273ffffffffffffffffffffffffffffffffffffffff167fddf252ad1be2c89b69c2b068fc378daa952ba7f163c4a11628f55a4df523b3ef60405160405180910390a4809150509392505050565b610d21828260405180602001604052806000815250611562565b5050565b80600660008481526020019081526020016000209081610d45919061241c565b507ff8e1a15aba9398e019f0b49df1a4fde98ee17ae345cb5f6b5e2c27f5033e8ce782604051610d759190611f52565b60405180910390a15050565b60006002600083815260200190815260200160002060009054906101000a900473ffffffffffffffffffffffffffffffffffffffff169050919050565b600073ffffffffffffffffffffffffffffffffffffffff168273ffffffffffffffffffffffffffffffffffffffff1603610e2f57816040517f5b08ba18000000000000000000000000000000000000000000000000000000008152600401610e269190611c68565b60405180910390fd5b80600560008573ffffffffffffffffffffffffffffffffffffffff1673ffffffffffffffffffffffffffffffffffffffff16815260200190815260200160002060008473ffffffffffffffffffffffffffffffffffffffff1673ffffffffffffffffffffffffffffffffffffffff16815260200190815260200160002060006101000a81548160ff0219169083151502179055508173ffffffffffffffffffffffffffffffffffffffff168373ffffffffffffffffffffffffffffffffffffffff167f17307eab39ab6107e8899845ad3d59bd9653f200f220920489ca2b5937696c3183604051610f209190611af7565b60405180910390a3505050565b60008373ffffffffffffffffffffffffffffffffffffffff163b11156110de578273ffffffffffffffffffffffffffffffffffffffff1663150b7a02610f71610ad3565b8685856040518563ffffffff1660e01b8152600401610f939493929190612543565b6020604051808303816000875af1925050508015610fcf57506040513d601f19601f82011682018060405250810190610fcc91906125a4565b60015b611053573d8060008114610fff576040519150601f19603f3d011682016040523d82523d6000602084013e611004565b606091505b50600081510361104b57836040517f64a0ae920000000000000000000000000000000000000000000000000000000081526004016110429190611c68565b60405180910390fd5b805181602001fd5b63150b7a0260e01b7bffffffffffffffffffffffffffffffffffffffffffffffffffffffff1916817bffffffffffffffffffffffffffffffffffffffffffffffffffffffff1916146110dc57836040517f64a0ae920000000000000000000000000000000000000000000000000000000081526004016110d39190611c68565b60405180910390fd5b505b50505050565b60606110ef82610a0e565b506000600660008481526020019081526020016000208054611110906121b5565b80601f016020809104026020016040519081016040528092919081815260200182805461113c906121b5565b80156111895780601f1061115e57610100808354040283529160200191611189565b820191906000526020600020905b81548152906001019060200180831161116c57829003601f168201915b50505050509050600061119a61157e565b905060008151036111af5781925050506111f2565b6000825111156111e45780826040516020016111cc9291906125d1565b604051602081830303815290604052925050506111f2565b6111ed84611595565b925050505b919050565b60007f80ac58cd000000000000000000000000000000000000000000000000000000007bffffffffffffffffffffffffffffffffffffffffffffffffffffffff1916827bffffffffffffffffffffffffffffffffffffffffffffffffffffffff191614806112c257507f5b5e139f000000000000000000000000000000000000000000000000000000007bffffffffffffffffffffffffffffffffffffffffffffffffffffffff1916827bffffffffffffffffffffffffffffffffffffffffffffffffffffffff1916145b806112d257506112d1826115fe565b5b9050919050565b80806113125750600073ffffffffffffffffffffffffffffffffffffffff168273ffffffffffffffffffffffffffffffffffffffff1614155b1561144657600061132284610a0e565b9050600073ffffffffffffffffffffffffffffffffffffffff168373ffffffffffffffffffffffffffffffffffffffff161415801561138d57508273ffffffffffffffffffffffffffffffffffffffff168173ffffffffffffffffffffffffffffffffffffffff1614155b80156113a0575061139e8184610919565b155b156113e257826040517fa9fbf51f0000000000000000000000000000000000000000000000000000000081526004016113d99190611c68565b60405180910390fd5b811561144457838573ffffffffffffffffffffffffffffffffffffffff168273ffffffffffffffffffffffffffffffffffffffff167f8c5be1e5ebec7d5bd14f71427d1e84f3dd0314c0f7b2291e5b200ac8c7c3b92560405160405180910390a45b505b836004600085815260200190815260200160002060006101000a81548173ffffffffffffffffffffffffffffffffffffffff021916908373ffffffffffffffffffffffffffffffffffffffff16021790555050505050565b6114a9838383611668565b61155d57600073ffffffffffffffffffffffffffffffffffffffff168373ffffffffffffffffffffffffffffffffffffffff160361151e57806040517f7e2732890000000000000000000000000000000000000000000000000000000081526004016115159190611f52565b60405180910390fd5b81816040517f177e802f0000000000000000000000000000000000000000000000000000000081526004016115549291906125f5565b60405180910390fd5b505050565b61156c8383611729565b6115796000848484610f2d565b505050565b606060405180602001604052806000815250905090565b60606115a082610a0e565b5060006115ab61157e565b905060008151116115cb57604051806020016040528060008152506115f6565b806115d584611822565b6040516020016115e69291906125d1565b6040516020818303038152906040525b915050919050565b60007f01ffc9a7000000000000000000000000000000000000000000000000000000007bffffffffffffffffffffffffffffffffffffffffffffffffffffffff1916827bffffffffffffffffffffffffffffffffffffffffffffffffffffffff1916149050919050565b60008073ffffffffffffffffffffffffffffffffffffffff168373ffffffffffffffffffffffffffffffffffffffff161415801561172057508273ffffffffffffffffffffffffffffffffffffffff168473ffffffffffffffffffffffffffffffffffffffff1614806116e157506116e08484610919565b5b8061171f57508273ffffffffffffffffffffffffffffffffffffffff1661170783610a96565b73ffffffffffffffffffffffffffffffffffffffff16145b5b90509392505050565b600073ffffffffffffffffffffffffffffffffffffffff168273ffffffffffffffffffffffffffffffffffffffff160361179b5760006040517f64a0ae920000000000000000000000000000000000000000000000000000000081526004016117929190611c68565b60405180910390fd5b60006117a983836000610aed565b9050600073ffffffffffffffffffffffffffffffffffffffff168173ffffffffffffffffffffffffffffffffffffffff161461181d5760006040517f73c6ac6e0000000000000000000000000000000000000000000000000000000081526004016118149190611c68565b60405180910390fd5b505050565b606060006001611831846118f0565b01905060008167ffffffffffffffff8111156118505761184f611d4c565b5b6040519080825280601f01601f1916602001820160405280156118825781602001600182028036833780820191505090505b509050600082602001820190505b6001156118e5578080600190039150507f3031323334353637383961626364656600000000000000000000000000000000600a86061a8153600a85816118d9576118d861261e565b5b04945060008503611890575b819350505050919050565b600080600090507a184f03e93ff9f4daa797ed6e38ed64bf6a1f010000000000000000831061194e577a184f03e93ff9f4daa797ed6e38ed64bf6a1f01000000000000000083816119445761194361261e565b5b0492506040810190505b6d04ee2d6d415b85acef8100000000831061198b576d04ee2d6d415b85acef810000000083816119815761198061261e565b5b0492506020810190505b662386f26fc1000083106119ba57662386f26fc1000083816119b0576119af61261e565b5b0492506010810190505b6305f5e10083106119e3576305f5e10083816119d9576119d861261e565b5b0492506008810190505b6127108310611a085761271083816119fe576119fd61261e565b5b0492506004810190505b60648310611a2b5760648381611a2157611a2061261e565b5b0492506002810190505b600a8310611a3a576001810190505b80915050919050565b6000604051905090565b600080fd5b600080fd5b60007fffffffff0000000000000000000000000000000000000000000000000000000082169050919050565b611a8c81611a57565b8114611a9757600080fd5b50565b600081359050611aa981611a83565b92915050565b600060208284031215611ac557611ac4611a4d565b5b6000611ad384828501611a9a565b91505092915050565b60008115159050919050565b611af181611adc565b82525050565b6000602082019050611b0c6000830184611ae8565b92915050565b600081519050919050565b600082825260208201905092915050565b60005b83811015611b4c578082015181840152602081019050611b31565b60008484015250505050565b6000601f19601f8301169050919050565b6000611b7482611b12565b611b7e8185611b1d565b9350611b8e818560208601611b2e565b611b9781611b58565b840191505092915050565b60006020820190508181036000830152611bbc8184611b69565b905092915050565b6000819050919050565b611bd781611bc4565b8114611be257600080fd5b50565b600081359050611bf481611bce565b92915050565b600060208284031215611c1057611c0f611a4d565b5b6000611c1e84828501611be5565b91505092915050565b600073ffffffffffffffffffffffffffffffffffffffff82169050919050565b6000611c5282611c27565b9050919050565b611c6281611c47565b82525050565b6000602082019050611c7d6000830184611c59565b92915050565b611c8c81611c47565b8114611c9757600080fd5b50565b600081359050611ca981611c83565b92915050565b60008060408385031215611cc657611cc5611a4d565b5b6000611cd485828601611c9a565b9250506020611ce585828601611be5565b9150509250929050565b600080600060608486031215611d0857611d07611a4d565b5b6000611d1686828701611c9a565b9350506020611d2786828701611c9a565b9250506040611d3886828701611be5565b9150509250925092565b600080fd5b600080fd5b7f4e487b7100000000000000000000000000000000000000000000000000000000600052604160045260246000fd5b611d8482611b58565b810181811067ffffffffffffffff82111715611da357611da2611d4c565b5b80604052505050565b6000611db6611a43565b9050611dc28282611d7b565b919050565b600067ffffffffffffffff821115611de257611de1611d4c565b5b611deb82611b58565b9050602081019050919050565b82818337600083830152505050565b6000611e1a611e1584611dc7565b611dac565b905082815260208101848484011115611e3657611e35611d47565b5b611e41848285611df8565b509392505050565b600082601f830112611e5e57611e5d611d42565b5b8135611e6e848260208601611e07565b91505092915050565b60008060008060808587031215611e9157611e90611a4d565b5b6000611e9f87828801611c9a565b9450506020611eb087828801611be5565b935050604085013567ffffffffffffffff811115611ed157611ed0611a52565b5b611edd87828801611e49565b925050606085013567ffffffffffffffff811115611efe57611efd611a52565b5b611f0a87828801611e49565b91505092959194509250565b600060208284031215611f2c57611f2b611a4d565b5b6000611f3a84828501611c9a565b91505092915050565b611f4c81611bc4565b82525050565b6000602082019050611f676000830184611f43565b92915050565b600060208284031215611f8357611f82611a4d565b5b600082013567ffffffffffffffff811115611fa157611fa0611a52565b5b611fad84828501611e49565b91505092915050565b611fbf81611adc565b8114611fca57600080fd5b50565b600081359050611fdc81611fb6565b92915050565b60008060408385031215611ff957611ff8611a4d565b5b600061200785828601611c9a565b925050602061201885828601611fcd565b9150509250929050565b600067ffffffffffffffff82111561203d5761203c611d4c565b5b61204682611b58565b9050602081019050919050565b600061206661206184612022565b611dac565b90508281526020810184848401111561208257612081611d47565b5b61208d848285611df8565b509392505050565b600082601f8301126120aa576120a9611d42565b5b81356120ba848260208601612053565b91505092915050565b600080600080608085870312156120dd576120dc611a4d565b5b60006120eb87828801611c9a565b94505060206120fc87828801611c9a565b935050604061210d87828801611be5565b925050606085013567ffffffffffffffff81111561212e5761212d611a52565b5b61213a87828801612095565b91505092959194509250565b6000806040838503121561215d5761215c611a4d565b5b600061216b85828601611c9a565b925050602061217c85828601611c9a565b9150509250929050565b7f4e487b7100000000000000000000000000000000000000000000000000000000600052602260045260246000fd5b600060028204905060018216806121cd57607f821691505b6020821081036121e0576121df612186565b5b50919050565b60006060820190506121fb6000830186611c59565b6122086020830185611f43565b6122156040830184611c59565b949350505050565b600081905092915050565b600061223382611b12565b61223d818561221d565b935061224d818560208601611b2e565b80840191505092915050565b60006122658284612228565b915081905092915050565b60008190508160005260206000209050919050565b60006020601f8301049050919050565b600082821b905092915050565b6000600883026122d27fffffffffffffffffffffffffffffffffffffffffffffffffffffffffffffffff82612295565b6122dc8683612295565b95508019841693508086168417925050509392505050565b6000819050919050565b600061231961231461230f84611bc4565b6122f4565b611bc4565b9050919050565b6000819050919050565b612333836122fe565b61234761233f82612320565b8484546122a2565b825550505050565b600090565b61235c61234f565b61236781848461232a565b505050565b5b8181101561238b57612380600082612354565b60018101905061236d565b5050565b601f8211156123d0576123a181612270565b6123aa84612285565b810160208510156123b9578190505b6123cd6123c585612285565b83018261236c565b50505b505050565b600082821c905092915050565b60006123f3600019846008026123d5565b1980831691505092915050565b600061240c83836123e2565b9150826002028217905092915050565b61242582611b12565b67ffffffffffffffff81111561243e5761243d611d4c565b5b61244882546121b5565b61245382828561238f565b600060209050601f8311600181146124865760008415612474578287015190505b61247e8582612400565b8655506124e6565b601f19841661249486612270565b60005b828110156124bc57848901518255600182019150602085019450602081019050612497565b868310156124d957848901516124d5601f8916826123e2565b8355505b6001600288020188555050505b505050505050565b600081519050919050565b600082825260208201905092915050565b6000612515826124ee565b61251f81856124f9565b935061252f818560208601611b2e565b61253881611b58565b840191505092915050565b60006080820190506125586000830187611c59565b6125656020830186611c59565b6125726040830185611f43565b8181036060830152612584818461250a565b905095945050505050565b60008151905061259e81611a83565b92915050565b6000602082840312156125ba576125b9611a4d565b5b60006125c88482850161258f565b91505092915050565b60006125dd8285612228565b91506125e98284612228565b91508190509392505050565b600060408201905061260a6000830185611c59565b6126176020830184611f43565b9392505050565b7f4e487b7100000000000000000000000000000000000000000000000000000000600052601260045260246000fdfea26469706673582212202bb7c25f881ffab7bec11ee4ce7a0b70c2e097968526e0ec113eb931a4b304b864736f6c634300081c0033",
  "linkReferences": {},
  "deployedLinkReferences": {}
}